:100000000C943E000C945B000C945B000C945B0021
:100010000C945B000C945B000C945B000C945B00F4
:100020000C945B000C945B000C945B000C945B00E4
:100030000C945B000C945B000C945B000C945B00D4
:100040000C945B000C945B000C945B000C945B00C4
:100050000C945B000C945B000C945B000C945B00B4
:100060000C945B000C945B001A001B001C001D002C
:100070001E001F00200021002200230011241FBEAB
:10008000CFEFD8E0DEBFCDBF12E0A0E0B1E0E4E307
:10009000FFE002C005900D92A231B107D9F722E02E
:1000A000A2E1B2E001C01D92A232B207E1F70E94C4
:1000B00048030C9498070C94000040980895409AC7
:1000C0000895419A85E08A95F1F7000008954198D6
:1000D00085ED8A95F1F70000089581E090E0909316
:1000E0003E0180933D0188E290E090933C01809333
:1000F0003B010E945D0045984498439A42980E94B3
:1001000061000E94670045984498439842980E9475
:1001100061000C94670082E090E090933E01809330
:100120003D0188E290E090933C0180933B010E9466
:100130005D0045984498439A42980E9461000E944D
:100140006700459A4498439842980E9461000C9435
:1001500067002FEF39E648E1215030404040E1F799
:1001600000C00000029719F40E948B0002C00E9498
:100170006D008FE19EE40197F1F700C00000089543
:100180000E945D0045984498439842980E946100FF
:100190000E946700459844984398429A0E946100E3
:1001A0000E9467008FE19EE40197F1F700C0000014
:1001B0000895EF92FF920F931F93CF93DF937C01EB
:1001C0008B01EA010E945D0045984498439842984B
:1001D0000E9461000E946700459AEF2811F0449A3E
:1001E00001C04498012B11F0439A01C04398CD2BD4
:1001F00011F0429A01C042980E946100DF91CF91B4
:100200001F910F91FF90EF900C9467000E945F0088
:1002100045984498439842980E9461000E94670064
:10022000459A449A439A429A0E9461000C9467004E
:10023000CF93C82F0E945F00C7FF02C0459A01C03C
:100240004598C6FF02C0449A01C04498C5FF02C049
:10025000439A01C04398C4FF02C0429A01C0429829
:100260000E9461000E946700C3FF02C0459A01C05E
:100270004598C2FF02C0449A01C04498C1FF02C021
:10028000439A01C04398C0FF02C0429A01C04298FD
:100290000E9461000E9467008FE391E00197F1F7EF
:1002A00000C00000CF910895CF93209116023091A5
:1002B000170220353105E0F5C82F0E945F00C7FF07
:1002C00002C0459A01C04598C6FF02C0449A01C0C9
:1002D0004498C5FF02C0439A01C04398C4FF02C0BE
:1002E000429A01C042980E9461000E946700C3FFC9
:1002F00002C0459A01C04598C2FF02C0449A01C09D
:100300004498C1FF02C0439A01C04398C0FF02C095
:10031000429A01C042980E9461000E946700809149
:10032000160290911702019690931702809316027D
:10033000CF9108950E945D00459844984398429A51
:100340000E9461000E946700459844984398429833
:100350000E9461000E9467008FED91E00197F1F724
:1003600000C0000008950E945D004598449843989D
:10037000429A0E9461000E9467004598449A4398FF
:1003800042980E9461000E9467008FED91E0019702
:10039000F1F700C000000895EF92FF920F931F93B2
:1003A000CF93DF9320913D0130913E018217930757
:1003B00008F047C020913B0130913C016217730760
:1003C00008F03FC08C01829FE001839FD00D929F77
:1003D000D00D1124C60FD71F8091160290911702DD
:1003E000E12CF12C8C179D07E8F480911602909176
:1003F00017029E01281B390BE216F30630F40E9407
:10040000B3012FEFE21AF20AF0CF88E1809FB0012A
:10041000819F700D1124C60FD71FD0931702C09370
:1004200016020FC080911602909117028C1B9D0B33
:10043000E816F90650F70E949A013FEFE31AF30A13
:10044000F1CFDF91CF911F910F91FF90EF90089521
:100450000E945D0045984498439842980E9461002C
:100460000E94670045984498439A42980E94610010
:100470000E94670010921702109216028FE19EE40C
:100480000197F1F700C000000895CF93DF93EC01CE
:100490008991882319F00E945401FACFDF91CF91FE
:1004A00008950F931F93CF93DF93C82F8B010E9462
:1004B0005D004598449AC5FF02C0439A01C0439825
:1004C000C4FF02C0429A01C042980E9461000E948B
:1004D0006700C3FF02C0459A01C04598C2FF02C031
:1004E000449A01C04498C1FF02C0439A01C0439896
:1004F000C0FF02C0429A01C042980E9461000E945F
:1005000067008FE391E00197F1F700C00000E80178
:10051000005F1F4F888122960E941801C017D107E3
:10052000C9F7DF91CF911F910F9108958DE491E06C
:100530000E94450260E070E081E090E00E94CC0102
:100540008CE591E00E9445022FEF8BE792E9215064
:1005500080409040E1F700C000000E94C0000C9471
:1005600028028CE691E00E94450260E070E081E0A4
:1005700090E00E94CC018CE791E00E9445020C942F
:1005800028020E94C0000E9428028CE891E00E948C
:10059000450260E070E081E090E00E94CC018CE7D1
:1005A00091E00E9445022FEF87EA91E621508040BA
:1005B0009040E1F700C000000E94C0000E942802A5
:1005C0008DE991E00E94450260E070E081E090E0FA
:1005D0000E94CC018DEA91E00C944502CF92DF920B
:1005E000EF92FF920F931F93CF93DF93CDB7DEB7B8
:1005F0002A970FB6F894DEBF0FBECDBFF82EE92EB6
:100600008B016A010E94C0000E942802EF92FF92B3
:100610008EEB91E09F938F93CE0101967C019F9387
:100620008F930E947C04C7010E944502F601E00FEF
:10063000F11F80810E9454010F900F900F900F9036
:100640000F900F902A960FB6F894DEBF0FBECDBF65
:10065000DF91CF911F910F91FF90EF90DF90CF909E
:10066000089508952D9A2FEF89E698E12150804052
:100670009040E1F700C000002D982FEF89E698E147
:10068000215080409040E1F700C000000895089597
:10069000CF93DF93CDB7DEB72C970FB6F894DEBFBC
:1006A0000FBECDBF8FE387B985B983EF8BB98AE0E1
:1006B000EFE3F1E0DE01119601900D928A95E1F7EA
:1006C00082E090E00E94A90040E050E060E070E02D
:1006D00081E090E00E94D9000E9428020E94C000A0
:1006E00041E050E06FE170E0CE010B960E942F07D1
:1006F0008B850E9454012FEF3FE443EC21503040A2
:100700004040E1F700C000008B858133F9F084ECB4
:1007100091E00E9445028FEF9FE4E3EC815090400E
:10072000E040E1F700C000004BE050E062E070E024
:10073000CE0101960E943F0781E38B8741E050E0A4
:100740006FE170E0CE010B960E943F070E94960277
:1007500085E090E02D9AFFEF21EE34E0F15020404B
:100760003040E1F700C000002D984FEFE1EEF4E0DB
:100770004150E040F040E1F700C00000019751F720
:1007800011E68091140290911502892B09F089C01D
:100790000E94B10283B11C9912C02AE62A95F1F792
:1007A00000C01C9BFECF3AE63A95F1F700C00E94CC
:1007B000C10281E090E0909315028093140289E4D5
:1007C000E82E81E0F82E83B190E0F701019002C09D
:1007D000959587950A94E2F77F0180FF0E94320386
:1007E000FDE4EF16F1E0FF0671F7CBCF1B993BC09C
:1007F0002AE62A95F1F700C01B9BFECF3AE63A9510
:10080000F1F700C041E050E062E070E0CE010C96EC
:100810000E942F078C8581568A3108F045C08AECEA
:1008200091E00E9445024FEF8FE493EC41508040ED
:100830009040E1F700C000008C8581568C870E94B3
:10084000C0000E942802EC85F0E0EA5EFE4F808145
:100850000E9454013FEF4FE483EC31504040804010
:10086000E1F700C000001A991CC09AE69A95F1F7CA
:1008700000C01A9BFECFEAE6EA95F1F700C060914E
:100880001202709113026F5F7F4F70931302609397
:10089000120246E151E080910801909109010E9405
:1008A000EE021C99A3CF10C085ED91E00E94450295
:1008B000EFEFFFE423ECE150F0402040E1F700C00F
:1008C00000008C858A54BACF1C9BFECFFAE6FA95BD
:1008D000F1F700C00E94C00019834BE050E062E0D5
:1008E00070E0CE0101960E943F070E94B102109273
:1008F00015021092140245CFAEE0B0E0E2E8F4E059
:100900000C946F070D891E8986E08C831A830983F6
:100910008FEF9FE79E838D83AE01475E5F4F6F89A8
:10092000788DCE0101960E949E04EF81F885E00F3C
:10093000F11F10822E96E4E00C948B07ABE0B0E040
:10094000E4EAF4E00C9461076C017B018A01FC018C
:1009500017821682838181FFCCC1CE0101963C01B2
:10096000F6019381F70193FD859193FF81917F01BA
:10097000882309F4BAC1853239F493FD859193FF38
:1009800081917F01853229F4B60190E00E9495069D
:10099000E7CF912C212C312CFFE1F315D8F08B32CD
:1009A00079F038F4803279F08332A1F4232D20617C
:1009B0001DC08D3261F0803369F4232D216016C093
:1009C000832D8260382EE32DE4603E2E2AC0F32D65
:1009D000F8601DC037FC2DC020ED280F2A3040F0F4
:1009E0008E32B9F436FC81C1232D2064322E19C019
:1009F00036FE06C08AE0989E200D1124922E11C06A
:100A0000EAE02E9E200D1124222EF32DF0623F2EBF
:100A100008C08C3621F4832D8068382E02C08836B9
:100A200041F4F70193FD859193FF81917F0181113D
:100A3000B3CF982F9F7D9554933028F40C5F1F4FB0
:100A40009FE399830DC0833631F0833771F083358E
:100A500009F059C021C0F801808189830E5F1F4FC2
:100A600088248394912C530113C02801F2E04F0E87
:100A7000511CF801A080B18036FE03C0692D70E0E2
:100A800002C06FEF7FEFC5010E948A064C01820110
:100A9000F32DFF773F2E16C0280122E0420E511C95
:100AA000F801A080B18036FE03C0692D70E002C05D
:100AB0006FEF7FEFC5010E947F064C01F32DF068B8
:100AC0003F2E820133FC1BC0822D90E088169906D0
:100AD000B0F4B60180E290E00E9495062A94F4CF2B
:100AE000F50137FC859137FE81915F01B60190E0F9
:100AF0000E94950621102A9421E0821A91088114FF
:100B0000910471F7E8C0843611F0893641F5F80197
:100B100037FE07C060817181828193810C5F1F4F16
:100B200008C060817181072E000C880B990B0E5F45
:100B30001F4FF32DFF763F2E97FF09C090958095AC
:100B4000709561957F4F8F4F9F4FF0683F2E2AE041
:100B500030E0A3010E94D106882E861845C0853753
:100B600031F4232D2F7EB22E2AE030E025C0932DC4
:100B7000997FB92E8F36C1F018F4883579F0B5C059
:100B8000803719F0883721F0B0C0E92FE061BE2E20
:100B9000B4FE0DC0FB2DF460BF2E09C034FE0AC0A8
:100BA000292F2660B22E06C028E030E005C020E1E3
:100BB00030E002C020E132E0F801B7FE07C06081FA
:100BC0007181828193810C5F1F4F06C060817181AA
:100BD00080E090E00E5F1F4FA3010E94D106882E97
:100BE0008618FB2DFF773F2E36FE0DC0232D2E7F5E
:100BF000A22E891458F434FE0BC032FC09C0832D98
:100C00008E7EA82E05C0B82CA32C03C0B82C01C022
:100C1000B92CA4FE0FC0FE01E80DF11D80818033C8
:100C200021F49A2D997EA92E09C0A2FE06C0B39484
:100C3000B39404C08A2D867809F0B394A3FC11C044
:100C4000A0FE06C0B21488F4280C922C9B180EC08B
:100C5000B21460F4B60180E290E00E949506B3946D
:100C6000F7CFB21418F42B1802C0982C212CA4FE34
:100C700010C0B60180E390E00E949506A2FE17C066
:100C8000A1FC03C088E790E002C088E590E0B601CF
:100C90000CC08A2D867859F0A1FE02C08BE201C0FB
:100CA00080E2A7FC8DE2B60190E00E9495068914CF
:100CB00038F4B60180E390E00E9495069A94F7CF4D
:100CC0008A94F301E80DF11D8081B60190E00E9445
:100CD00095068110F5CF222009F442CEB60180E2BC
:100CE00090E00E9495062A94F6CFF60186819781BE
:100CF00002C08FEF9FEF2B96E2E10C947D07FC0181
:100D00000590615070400110D8F7809590958E0F36
:100D10009F1F0895FC016150704001900110D8F7A9
:100D2000809590958E0F9F1F08950F931F93CF93DB
:100D3000DF93FB01238121FD03C08FEF9FEF2CC0C8
:100D400022FF16C0468157812481358142175307FF
:100D500044F4A081B1819D012F5F3F4F31832083F7
:100D60008C93268137812F5F3F4F3783268314C0B2
:100D70008B01EC01FB010084F185E02D0995892BA5
:100D8000E1F6D80116968D919C91179701961796CA
:100D90009C938E931697CE01DF91CF911F910F9167
:100DA0000895FA01AA27283051F1203181F1E89401
:100DB0006F936E7F6E5F7F4F8F4F9F4FAF4FB1E04E
:100DC0003ED0B4E03CD0670F781F891F9A1FA11D49
:100DD000680F791F8A1F911DA11D6A0F711D811D4A
:100DE000911DA11D20D009F468943F912AE0269F0F
:100DF00011243019305D3193DEF6CF010895462F6E
:100E00004770405D4193B3E00FD0C9F7F6CF462F4E
:100E10004F70405D4A3318F0495D31FD40524193B7
:100E200002D0A9F7EACFB4E0A69597958795779574
:100E30006795BA95C9F700976105710508959B01FB
:100E4000AC010A2E06945795479537952795BA9584
:100E5000C9F7620F731F841F951FA01D0895DC0141
:100E6000CB01FC01F999FECF06C0F2BDE1BDF89AB5
:100E7000319600B40D9241505040B8F70895DC010E
:100E8000A40FB51F4150504048F0CB01840F951F6F
:100E90002E910E94500741505040D0F70895262FC0
:100EA000F999FECF92BD81BDF89A019700B4021660
:100EB00039F01FBA20BD0FB6F894FA9AF99A0FBE0E
:100EC00008952F923F924F925F926F927F928F92EE
:100ED0009F92AF92BF92CF92DF92EF92FF920F93C9
:100EE0001F93CF93DF93CDB7DEB7CA1BDB0B0FB6D3
:100EF000F894DEBF0FBECDBF09942A883988488890
:100F00005F846E847D848C849B84AA84B984C88425
:100F1000DF80EE80FD800C811B81AA81B981CE0F1C
:100F2000D11D0FB6F894DEBF0FBECDBFED01089501
:040F3000F894FFCF63
:100F3400DF01E401E801EC01F201F701FC01000228
:100F440006020C0200006162636465666768696A90
:100F54006B6C6D6E6F707172737475767778797A65
:100F64003031323334353637383900280002003016
:100F7400313233343536373839030201002020202A
:100F840054656B6C61646F73202020002020204D19
:100F94006563616E69636F73202020002020202028
:100FA400204E6F726D616C202020200020202020B4
:100FB40020204D6F64652020202020002020202048
:100FC40020436F6E66696720202020200020507225
:100FD40065737320616E79206B657920006F7220D0
:100FE400636F6E66696720322065786974002573C3
:100FF400203A2000656E74726F00656E74726F2003
:101004006368617200656E74726F206E756D005A4C
:1010140045524F004F4E450054574F0054485245D7
:101024004500464F5552004649564500534958001D
:10103400534556454E004549474854004E494E4590
:021044000000AA
:00000001FF
