:100000000C9434000C9451000C9451000C94510049
:100010000C9451000C9451000C9451000C9451001C
:100020000C9451000C9451000C9451000C9451000C
:100030000C9451000C9451000C9451000C945100FC
:100040000C9451000C9451000C9451000C945100EC
:100050000C9451000C9451000C9451000C945100DC
:100060000C9451000C94510011241FBECFEFD8E026
:10007000DEBFCDBF12E0A0E0B1E0E4E2FEE002C0EE
:1000800005900D92A032B107D9F722E0A0E2B2E0CC
:1000900001C01D92A033B207E1F70E9480030C94C7
:1000A00010070C94000040980895409A0895419AD2
:1000B00085E08A95F1F700000895419885ED8A95CD
:1000C000F1F70000089581E090E090933E01809365
:1000D0003D0188E290E090933C0180933B010E94B7
:1000E000530045984498439A42980E9457000E94B2
:1000F0005D0045984498439842980E9457000C949C
:100100005D0082E090E090933E0180933D0188E2A3
:1001100090E090933C0180933B010E9453004598EE
:100120004498439A42980E9457000E945D00459A65
:100130004498439842980E9457000C945D002FEF1A
:1001400039E648E1215030404040E1F700C000006E
:10015000029719F40E94810002C00E9463008FE19F
:100160009EE40197F1F700C0000008950E9453003B
:1001700045984498439842980E9457000E945D0019
:10018000459844984398429A0E9457000E945D0007
:100190008FE19EE40197F1F700C000000895EF920F
:1001A000FF920F931F93CF93DF937C018B01EA01A2
:1001B0000E94530045984498439842980E945700E3
:1001C0000E945D00459AEF2811F0449A01C04498BE
:1001D000012B11F0439A01C04398CD2B11F0429AA4
:1001E00001C042980E945700DF91CF911F910F915B
:1001F000FF90EF900C945D000E9455004598449844
:10020000439842980E9457000E945D00459A449A84
:10021000439A429A0E9457000C945D00CF93C82FD6
:100220000E945500C7FF02C0459A01C04598C6FF0D
:1002300002C0449A01C04498C5FF02C0439A01C05D
:100240004398C4FF02C0429A01C042980E945700DE
:100250000E945D00C3FF02C0459A01C04598C2FFDD
:1002600002C0449A01C04498C1FF02C0439A01C031
:100270004398C0FF02C0429A01C042980E945700B2
:100280000E945D008FE391E00197F1F700C000004C
:10029000CF910895CF9320912402309125022035EB
:1002A0003105E0F5C82F0E945500C7FF02C0459AEE
:1002B00001C04598C6FF02C0449A01C04498C5FFDA
:1002C00002C0439A01C04398C4FF02C0429A01C0D1
:1002D00042980E9457000E945D00C3FF02C0459AE9
:1002E00001C04598C2FF02C0449A01C04498C1FFB2
:1002F00002C0439A01C04398C0FF02C0429A01C0A5
:1003000042980E9457000E945D00809124029091C3
:10031000250201969093250280932402CF9108959F
:100320000E945300459844984398429A0E9457006F
:100330000E945D0045984498439842980E94570057
:100340000E945D008FED91E00197F1F700C0000081
:1003500008950E945300459844984398429A0E94F9
:1003600057000E945D004598449A439842980E9425
:1003700057000E945D008FED91E00197F1F700C0FA
:1003800000000895EF92FF920F931F93CF93DF9396
:1003900020913D0130913E018217930708F047C03C
:1003A00020913B0130913C016217730708F03FC078
:1003B0008C01829FE001839FD00D929FD00D11246C
:1003C000C60FD71F8091240290912502E12CF12CB9
:1003D0008C179D07E8F480912402909125029E01DC
:1003E000281B390BE216F30630F40E94A9012FEF07
:1003F000E21AF20AF0CF88E1809FB001819F700D70
:100400001124C60FD71FD0932502C09324020FC01A
:1004100080912402909125028C1B9D0BE816F90611
:1004200050F70E9490013FEFE31AF30AF1CFDF91FA
:10043000CF911F910F91FF90EF9008950E9453006C
:1004400045984498439842980E9457000E945D0046
:1004500045984498439A42980E9457000E945D0034
:1004600010922502109224028FE19EE40197F1F789
:1004700000C000000895CF93DF93EC018991882399
:1004800019F00E944A01FACFDF91CF9108950F939E
:100490001F93CF93DF93C82F8B010E945300459881
:1004A000449AC5FF02C0439A01C04398C4FF02C0EA
:1004B000429A01C042980E9457000E945D00C3FF0B
:1004C00002C0459A01C04598C2FF02C0449A01C0CB
:1004D0004498C1FF02C0439A01C04398C0FF02C0C4
:1004E000429A01C042980E9457000E945D008FE32B
:1004F00091E00197F1F700C00000E801005F1F4F95
:10050000888122960E940E01C017D107C9F7DF919A
:10051000CF911F910F91089583E491E00E943B02D7
:1005200060E070E081E090E00E94C20182E591E02D
:100530000E943B022FEF8BE792E9215080409040D0
:10054000E1F700C000000E94B6000C941E0282E693
:1005500091E00E943B0260E070E081E090E00E9448
:10056000C20182E791E00E943B020C941E020E94AD
:10057000B6000E941E0282E691E00E943B0260E00B
:1005800070E081E090E00E94C20182E891E00E9468
:100590003B022FEF87EA91E6215080409040E1F73F
:1005A00000C000000E94B6000E941E0283E991E094
:1005B0000E943B022FEF83ED90E32150804090405A
:1005C000E1F700C000000E94B6000E941E0283EA0C
:1005D00091E00E943B022FEF83ED90E32150804099
:1005E0009040E1F700C000000E94B6000E941E0289
:1005F00083EB91E00E943B022FEF83ED90E32150CB
:1006000080409040E1F700C000000E94B6000E94C8
:100610001E0283EC91E00E943B022FEF83ED90E3FA
:10062000215080409040E1F700C000000E94B600D9
:100630000E941E0283ED91E00E943B022FEF83EDAA
:1006400090E3215080409040E1F700C000000E94FC
:10065000B6000C941E02CF92DF92EF92FF920F939E
:100660001F93CF93DF93CDB7DEB72A970FB6F894D9
:10067000DEBF0FBECDBF8B016A019F938F9385EEC6
:1006800091E09F938F93CE0101967C019F938F936E
:100690000E9426040E941E02C7010E943B02F6012E
:1006A000E00FF11F80810E944A010F900F900F9080
:1006B0000F900F900F902A960FB6F894DEBF0FBEE2
:1006C000CDBFDF91CF911F910F91FF90EF90DF9001
:1006D000CF90089508952D9A2FEF89E698E1215043
:1006E00080409040E1F700C000002D982FEF89E690
:1006F00098E1215080409040E1F700C0000008954B
:100700008FE387B985B983EF8BB982E090E00E94CF
:100710009F0040E050E060E070E081E090E00E94E7
:10072000CF000E941E020E94B6000E948C0285E04B
:1007300090E02D9A2FEF31EE44E0215030404040C0
:10074000E1F700C000002D98EFEFF1EE24E0E1505A
:10075000F0402040E1F700C00000019751F7C1E0F0
:10076000D0E08091220290912302892B09F05FC092
:100770000E94A70283B11C9910C03AE63A95F1F79E
:1007800000C01C9BFECF4AE64A95F1F700C00E94CC
:10079000B702D0932302C09322020FE311E083B18A
:1007A00090E0F801019002C0959587950A94E2F7D0
:1007B0008F0180FF0E946B03F1E003341F0779F77C
:1007C000D0CF1B9916C02AE62A95F1F700C01B9BD3
:1007D000FECF3AE63A95F1F700C0609120027091A1
:1007E000210246E151E080910801909109010E94A7
:1007F0002B031A991CC04AE64A95F1F700C01A9BD0
:10080000FECF8AE68A95F1F700C0609120027091D0
:1008100021026F5F7F4F709321026093200246E1B7
:1008200051E080910801909109010E942B031C99CD
:10083000C8CF1C9BFECFEAE6EA95F1F700C00E9404
:10084000A70210922302109222028BCFAEE0B0E0FA
:10085000ECE2F4E00C94E7060D891E8986E08C83B7
:100860001A8309838FEF9FE79E838D83AE01475ED6
:100870005F4F6F89788DCE0101960E944804EF8109
:10088000F885E00FF11F10822E96E4E00C94030728
:10089000ABE0B0E0EEE4F4E00C94D9066C017B012F
:1008A0008A01FC0117821682838181FFCCC1CE01AF
:1008B00001963C01F6019381F70193FD859193FF29
:1008C00081917F01882309F4BAC1853239F493FDFF
:1008D000859193FF81917F01853229F4B60190E0E3
:1008E0000E943F06E7CF912C212C312CFFE1F3151C
:1008F000D8F08B3279F038F4803279F08332A1F479
:10090000232D20611DC08D3261F0803369F4232DC9
:10091000216016C0832D8260382EE32DE4603E2EC8
:100920002AC0F32DF8601DC037FC2DC020ED280F24
:100930002A3040F08E32B9F436FC81C1232D206478
:10094000322E19C036FE06C08AE0989E200D112472
:10095000922E11C0EAE02E9E200D1124222EF32D9E
:10096000F0623F2E08C08C3621F4832D8068382E2B
:1009700002C0883641F4F70193FD859193FF819180
:100980007F018111B3CF982F9F7D9554933028F428
:100990000C5F1F4F9FE399830DC0833631F083377F
:1009A00071F0833509F059C021C0F8018081898335
:1009B0000E5F1F4F88248394912C530113C028018C
:1009C000F2E04F0E511CF801A080B18036FE03C04A
:1009D000692D70E002C06FEF7FEFC5010E94340601
:1009E0004C018201F32DFF773F2E16C0280122E033
:1009F000420E511CF801A080B18036FE03C0692D63
:100A000070E002C06FEF7FEFC5010E9429064C0124
:100A1000F32DF0683F2E820133FC1BC0822D90E045
:100A200088169906B0F4B60180E290E00E943F0675
:100A30002A94F4CFF50137FC859137FE81915F014F
:100A4000B60190E00E943F0621102A9421E0821A0C
:100A500091088114910471F7E8C0843611F0893649
:100A600041F5F80137FE07C0608171818281938171
:100A70000C5F1F4F08C060817181072E000C880B2E
:100A8000990B0E5F1F4FF32DFF763F2E97FF09C086
:100A900090958095709561957F4F8F4F9F4FF0682F
:100AA0003F2E2AE030E0A3010E947B06882E8618A4
:100AB00045C0853731F4232D2F7EB22E2AE030E059
:100AC00025C0932D997FB92E8F36C1F018F4883543
:100AD00079F0B5C0803719F0883721F0B0C0E92F20
:100AE000E061BE2EB4FE0DC0FB2DF460BF2E09C028
:100AF00034FE0AC0292F2660B22E06C028E030E05E
:100B000005C020E130E002C020E132E0F801B7FE8C
:100B100007C060817181828193810C5F1F4F06C085
:100B20006081718180E090E00E5F1F4FA3010E9401
:100B30007B06882E8618FB2DFF773F2E36FE0DC0D4
:100B4000232D2E7FA22E891458F434FE0BC032FCC4
:100B500009C0832D8E7EA82E05C0B82CA32C03C0FF
:100B6000B82C01C0B92CA4FE0FC0FE01E80DF11D88
:100B70008081803321F49A2D997EA92E09C0A2FE8E
:100B800006C0B394B39404C08A2D867809F0B39458
:100B9000A3FC11C0A0FE06C0B21488F4280C922C4D
:100BA0009B180EC0B21460F4B60180E290E00E947F
:100BB0003F06B394F7CFB21418F42B1802C0982C48
:100BC000212CA4FE10C0B60180E390E00E943F06F5
:100BD000A2FE17C0A1FC03C088E790E002C088E530
:100BE00090E0B6010CC08A2D867859F0A1FE02C0B3
:100BF0008BE201C080E2A7FC8DE2B60190E00E948A
:100C00003F06891438F4B60180E390E00E943F0665
:100C10009A94F7CF8A94F301E80DF11D8081B60113
:100C200090E00E943F068110F5CF222009F442CEC9
:100C3000B60180E290E00E943F062A94F6CFF601CA
:100C40008681978102C08FEF9FEF2B96E2E10C9493
:100C5000F506FC010590615070400110D8F78095B1
:100C600090958E0F9F1F0895FC0161507040019078
:100C70000110D8F7809590958E0F9F1F08950F93C0
:100C80001F93CF93DF93FB01238121FD03C08FEFDF
:100C90009FEF2CC022FF16C04681578124813581E9
:100CA0004217530744F4A081B1819D012F5F3F4F4C
:100CB000318320838C93268137812F5F3F4F378389
:100CC000268314C08B01EC01FB010084F185E02D2B
:100CD0000995892BE1F6D80116968D919C9117976D
:100CE000019617969C938E931697CE01DF91CF9124
:100CF0001F910F910895FA01AA27283051F1203150
:100D000081F1E8946F936E7F6E5F7F4F8F4F9F4F9F
:100D1000AF4FB1E03ED0B4E03CD0670F781F891FE1
:100D20009A1FA11D680F791F8A1F911DA11D6A0FAF
:100D3000711D811D911DA11D20D009F468943F9162
:100D40002AE0269F11243019305D3193DEF6CF0161
:100D50000895462F4770405D4193B3E00FD0C9F727
:100D6000F6CF462F4F70405D4A3318F0495D31FD94
:100D70004052419302D0A9F7EACFB4E0A6959795E7
:100D8000879577956795BA95C9F7009761057105BD
:100D900008959B01AC010A2E069457954795379507
:100DA0002795BA95C9F7620F731F841F951FA01D61
:100DB00008952F923F924F925F926F927F928F92FF
:100DC0009F92AF92BF92CF92DF92EF92FF920F93DA
:100DD0001F93CF93DF93CDB7DEB7CA1BDB0B0FB6E4
:100DE000F894DEBF0FBECDBF09942A8839884888A1
:100DF0005F846E847D848C849B84AA84B984C88437
:100E0000DF80EE80FD800C811B81AA81B981CE0F2D
:100E1000D11D0FB6F894DEBF0FBECDBFED01089512
:040E2000F894FFCF74
:100E2400EB01F001F401F801FD0104020A020F02D2
:100E340015021A0200006162636465666768696A84
:100E44006B6C6D6E6F707172737475767778797A76
:100E54003132333435363738393000280002000354
:100E640002010020202054656B6C61646F732020A4
:100E740020002020204D6563616E69636F7320201C
:100E840020002020202020204D6F646F202020206F
:100E9400200020202020204E6F726D616C202020C5
:100EA40020002020436F6E66696775726163696F05
:100EB4006E20002020202070726573696F6E61209F
:100EC400202000202020202020206C6120202020B1
:100ED40020200020202020207465636C61202020C5
:100EE40020200020202020202020612020202020DD
:100EF400202000202020636F6E666967757261721E
:100F040020202020002573203A20004345524F0022
:100F1400554E4F00444F53005452455300435541DE
:100F240054524F0043494E434F00534549530053D5
:100F340049455445004F43484F004E5545564500DA
:00000001FF
